:100000000C942A000C9434000C9434000C943400AA
:100010000C9434000C9434000C9434000C94340090
:100020000C9434000C9434000C9434000C94340080
:100030000C9434000C9434000C9434000C94340070
:100040000C9434000C9434000C9434000C94340060
:100050000C94340011241FBECFE5D4E0DEBFCDBF29
:100060000E9443000C9449000C9400008FB58064FA
:100070008FBD8EB58C608EBD1DBC1CBC82E19AE725
:100080009BBD8ABD089581B3806281BB0E9436000A
:06009000FFCFF894FFCF42
:00000001FF
